:08000000803102288731FA2F3C
:100DF4007108F3007008F200730DF30CF20C730D1C
:100E0400F30CF20C72082600910070080339F2000A
:100E14000430F235890B0B2F1308CF397204930079
:100E24000800F401F501701C1B2F7208F407730805
:100E3400F53D0130F235F30D890B1C2F0130F136ED
:100E4400F00C890B212F71087004031D152F7508F0
:100E5400F101F1077408F001F0070800F2007208CC
:100E6400F000F00DF00D21001D08700683397006A6
:100E74009D001D140730F1007D30F000F00B402F71
:100E8400F10B402F21009D149D18462F1C082000B3
:100E9400A501A50721001B082000A401A407080040
:100EA4002000A101F71F5D2FF609F709F60A0319BF
:100EB400F70AA101A10AF91F682FF809F909F80A2C
:100EC4000319F90A0130FA007A08A106A201A30164
:100ED400770876040319972FA001A00AF71B7C2F2B
:100EE4000130F635F70D890B732F0130FA007A08BB
:100EF400A007702F0130A235A30D890B7D2F770831
:100F04007902031D872F76087802031C8E2F76083A
:100F1400F8027708F93B22140130F736F60C890BF6
:100F24008F2F0130A002031D7C2F210803199F2F4E
:100F3400A209A309A20A0319A30A2308F701F707C0
:100F44002208F601F6070800F73021008C0017305C
:100F540023008C00FF3021008D00023023008D001F
:100F64002D3021009D00C0309E009B019C01033068
:100F740020009C004E309B009A0191101C151C30DF
:100F84002600930027309100CF3025009E05FB01F9
:100F9400FC010B30873130278731E830F60003300D
:100FA400F70020002508F101F1072408F001F007FB
:100FB4001F30F2000030F3008731132787317108A6
:100FC400F901F9077008F801F807873152278731CA
:100FD4007608083EFB000030773DFC007C08F101F8
:100FE400F1077B08F001F0078631FA268731CB2F11
:0C0FF400A401A5017E1020008731A62F6B
:020000040001F9
:04000E00E1FFFFDE31
:00000001FF
