:08000000803102288731FC2F3A
:100D8E008631D9260800F30020008D1573088731AF
:100D9E0056270800F30020008D117308803E87311E
:100DAE00562708002000911ED92E23009D1CE12EEF
:100DBE001D121D161908080020008D1573088400D9
:100DCE0074088500000800380319080073088400B1
:100DDE007408850000088731562786310130F307E5
:100DEE000030F43DE52E0230F2007208F800873133
:100DFE00A92786312830F2007208F8008731A9271A
:100E0E0086310C30F2007208F8008731A92786313E
:100E1E000630F2007208F8008731A9278631F801F2
:100E2E00F80A8731A92708002030F5007508F6006A
:100E3E00023021008D0023008D0148309F0090303C
:100E4E009D0026309E0067309B009C018631FA265D
:100E5E00873100308631D12687310030F30088305B
:100E6E00F4008631E326873140308631D126873132
:100E7E001130F3008830F4008631E3268731863155
:100E8E00C7268731F5007508F6004C308631D1261D
:100E9E0087317608303E8631CA268731462FF200DA
:100EAE0020000D140D080F398D007208F039F00076
:100EBE007008F70077080D048D000330F1009730AD
:100ECE00F000F00B682FF10B682F003220000D1090
:100EDE000330F1009730F000F00B732FF10B732FEE
:100EEE00003220000D140D080F398D007208F0002D
:100EFE000330F035FF3E031D802F7035F100710871
:100F0E00F2007208F0007008F7007708F039F00070
:100F1E007008F70077080D048D000330F10097304C
:100F2E00F000F00B982FF10B982F003220000D10CF
:100F3E000330F1009730F000F00BA32FF10BA32F2D
:100F4E000032080020008D110D140D080F398D0090
:100F5E007808F039F0007008F70077080D048D005E
:100F6E000330F1009730F000F00BBB2FF10BBB2FCD
:100F7E00003220000D100330F1009730F000F00B1E
:100F8E00C62FF10BC62F003220000D140D080F399D
:100F9E008D007808F0000330F035FF3E031DD32F8F
:100FAE007035F1007108F8007808F0007008F7004D
:100FBE007708F039F0007008F70077080D048D00FF
:100FCE000330F1009730F000F00BEB2FF10BEB2F0D
:100FDE00003220000D100330F1009730F000F00BBE
:100FEE00F62FF10BF62F003208007E10200087310D
:100FFE001B2F20342034203443346F346D3420348E
:10100E005234533432343334323420342034203496
:10101E00203400342034203443346F346E3474342E
:0E102E0065346F34203465346E342034003461
:020000040001F9
:04000E00E1FFFFDE31
:00000001FF
