:0400000080319D2886
:100008007E14803120007F08F8004030823197222A
:1000180080311130F3008230F4008231782280314F
:1000280027001608013A031D32284D3082319722E5
:1000380080313330F3008230F4008231782280310D
:100048000330F7008A30F6005630F500F50B2A2801
:10005800F60B2A28F70B2A2800328B2827001608C7
:10006800023A031D50284D308231972280313530B5
:10007800F3008230F4008231782280310330F700B7
:100088008A30F6005630F500F50B4828F60B48285C
:10009800F70B482800328B2827001608043A031D5E
:1000A8006E284D308231972280313730F30082300C
:1000B800F4008231782280310330F7008A30F6006C
:1000C8005630F500F50B6628F60B6628F70B662800
:1000D80000328B2827001608083A031D8B284D305C
:1000E8008231972280313930F3008230F400823136
:1000F800782280310330F7008A30F6005630F50058
:10010800F50B8428F60B8428F70B8428003240303E
:100118008231972280310030F3008230F40082313E
:100128007822270096010B1078082000FF007E1027
:10013800090080319F287E10200081319C292000F1
:100148008C100C140D080F398D007A08F039A000B6
:100158002008F90079080D048D000330A1009730BC
:10016800A000A00BB528A10BB528003220000C1068
:100178000330A1009730A000A00BC028A10BC02815
:10018800003220000C140D080F398D007A08A000E9
:100198000330A035FF3E031DCD282035A1002108DE
:1001A800FA007A08A0002008F9007908F039A000C0
:1001B8002008F90079080D048D000330A10097305C
:1001C800A000A00BE528A10BE528003220000C10A8
:1001D8000330A1009730A000A00BF028A10BF02855
:1001E800003208002000A2000C140D080F398D0001
:1001F8002208F039A0002008F90079080D048D00C4
:100208000330A1009730A000A00B0829A10B0829F2
:10021800003220000C100330A1009730A000A00B82
:100228001329A10B1329003220000C140D080F39D3
:100238008D002208A0000330A035FF3E031D2029B1
:100248002035A1002108A2002208A0002008F900FA
:100258007908F039A0002008F90079080D048D000C
:100268000330A1009730A000A00B3829A10B382932
:10027800003220000C100330A1009730A000A00B22
:100288004329A10B432900320800F20020000C1476
:100298000D080F398D007208F039F0007008F90068
:1002A80079080D048D000330F1009730F000F00B51
:1002B8005B29F10B5B29003220000C100330F100A0
:1002C8009730F000F00B6629F10B66290032200008
:1002D8000C140D080F398D007208F0000330F0354A
:1002E800FF3E031D73297035F1007108F200720892
:1002F800F0007008F9007908F039F0007008F9008A
:1003080079080D048D000330F1009730F000F00BF0
:100318008B29F10B8B29003220000C100330F100DF
:100328009730F000F00B9629F10B9629003208005F
:10033800F83021008C0023008C010F3021008D0043
:1003480023008D0120008D0188308B000F3027009D
:10035800950082313B228131003082318F228131F8
:1003680022302000A3008230A40082316022813133
:10037800403082318F22813100302000A30082304A
:10038800A400823160228131043020008C060230C2
:10039800A7000430A600BA30A500A50BD129A60BEA
:0A03A800D129A70BD1290000C829B4
:100400002034203449346E346134633474346934B4
:10041000763461342E342E342E342034203420347B
:100420000034413443345434493456344134203454
:1004300045344E3421342034523442342034203474
:10044000203400342034203449346E34743465341C
:100450007234723475347034633469346F346E348A
:100460002034203400343034003431340034323419
:1004700000343334003402302000A2002208FA0095
:100480008031A320823128302000A2002208FA0007
:100490008031A32082310C302000A2002208FA0013
:1004A0008031A320823106302000A2002208FA0009
:1004B0008031A3208231FA01FA0A8031A32008009A
:1004C00020008C14230884002408850000080038CC
:1004D00003190800230884002408850000088031DF
:1004E000F620823101302000A3070030A43D622AAB
:1004F00020008C14730884007408850000080038FC
:10050000031908007308840074088500000881310D
:10051000492182310130F3070030F43D7A2A20006E
:10052000A3008C102308803E8031F6200800F300E1
:0E05300020008C107308803E813149210800A4
:020000040001F9
:04000E00E1FFFFDE31
:00000001FF
