:08000000803102288731F62F40
:100DC200F30020008C1473088631FF260800F3001C
:100DD20020008C107308803E8631FF260800200018
:100DE2008C100C140330F1009730F000F00BF72E4A
:100DF200F10BF72E003220000C100800F2007208EE
:100E020020008D000C140330F1009730F000F00B3D
:100E1200082FF10B082F003220000C1008002000D0
:100E22008C147308840074088500000800380319C4
:100E32000800730884007408850000088631FF26C4
:100E420087310130F3070030F43D122F02302000C9
:100E52008D008631F0268731383020008D008631B2
:100E6200F02687310C3020008D008631F026873144
:100E7200063020008D008631F026873101302000B7
:100E82008D008631F02608007108FA01FA07700811
:100E9200F901F907FB01FC01FD012000A0017A081C
:100EA200803AF20083307202031D592FE830790232
:100EB200031C6D2F1830F907FC30FA3D0130F200A7
:100EC20072082000A007502F9C30F907FF30FA3D2E
:100ED2000130F2007208FB077A08803AF200803093
:100EE2007202031D762F64307902031C812F652F55
:100EF200F630F907FF30FA3D0130F2007208FC07C4
:100F02007A08803AF20080307202031D8A2F0A307A
:100F120079020318792F7908F2007208FD0008009F
:100F2200FC3021008C0023008C0121008D01230064
:100F32008D0120008C018D01F701F80187312727EF
:100F4200873100308631E82687310030F30088305F
:100F5200F4008731102787317808F101F10777080B
:100F6200F001F0078731452787317808803AF5008C
:100F7200A7307502031DBF2F10307702031CC32F49
:100F8200F701F80146308631E82687312000200833
:100F9200303E8631E126873147308631E826873177
:100FA2007B08303E8631E126873148308631E8269B
:100FB20087317C08303E8631E126873149308631DF
:100FC200E82687317D08303E8631E12687310130BF
:100FD200F7070030F83D0D30F600FB30F500F50B59
:100FE200F02FF60BF02F0032AD2FF901FA01FB01C1
:100FF200FC01FD01A0017E1020008731912F2034D9
:10100200203443346F346E347434613464346F3456
:101012007234203465346E343A342034203400344F
:020000040001F9
:04000E00E1FFFFDE31
:00000001FF
