:08000000803102288731FC2F3A
:100DEC00F30020008D107308803E873156270800D1
:100DFC0020008D14730884007408850000080038E6
:100E0C0003190800730884007408850000088731F2
:100E1C00562786310130F3070030F43D002F2100B6
:100E2C008D0123008D0120008D01873135278731FD
:100E3C0000308631F62687311130F3008830F4000B
:100E4C008631FE26873140308631F62687310030D8
:100E5C00F3008830F4008631FE268731342F0230BF
:100E6C00F2007208F6008731A92787312830F2008A
:100E7C007208F6008731A92787310C30F20072080E
:100E8C00F6008731A92787310630F2007208F60088
:100E9C008731A9278731F601F60A8731A92708007F
:100EAC00F20020000D140D080F398D007208F03976
:100EBC00F0007008F50075080D048D000330F1008A
:100ECC009730F000F00B682FF10B682F00322000E8
:100EDC000D100330F1009730F000F00B732FF10B75
:100EEC00732F003220000D140D080F398D0072087D
:100EFC00F0000330F035FF3E031D802F7035F100FC
:100F0C007108F2007208F0007008F5007508F039ED
:100F1C00F0007008F50075080D048D000330F10029
:100F2C009730F000F00B982FF10B982F0032200027
:100F3C000D100330F1009730F000F00BA32FF10BE4
:100F4C00A32F0032080020008D100D140D080F394E
:100F5C008D007608F039F0007008F50075080D0466
:100F6C008D000330F1009730F000F00BBB2FF10B2C
:100F7C00BB2F003220000D100330F1009730F00031
:100F8C00F00BC62FF10BC62F003220000D140D08EC
:100F9C000F398D007608F0000330F035FF3E031D4D
:100FAC00D32F7035F1007108F6007608F000700848
:100FBC00F5007508F039F0007008F50075080D049F
:100FCC008D000330F1009730F000F00BEB2FF10B9C
:100FDC00EB2F003220000D100330F1009730F000A1
:100FEC00F00BF62FF10BF62F003208007E102000CC
:100FFC008731152F403461346C3465346A34613474
:10100C006E34643472346F346D3475346E346F34C2
:10101C007A34633400344C34433444342034503404
:10102C004934433431343634463431343834323440
:04103C003734003411
:020000040001F9
:04000E00E1FFFFDE31
:00000001FF
