:08000000803102288731FC2F3A
:100EF000F73021008C00173023008C0001302000D7
:100F00009C007F309B009A0191101C153C302600FC
:100F100093007F309100CF3025009E05F201F30150
:100F20007308803AF00082307002031D992F003060
:100F300072020318C92F7308F1007208F000710DD6
:100F4000F10CF00C710DF10CF00C70082600910002
:100F500072080339F0000430F035890BAC2F130808
:100F6000CF3970049300F930F0000000F00BB52F7A
:100F7000003200000130F2070030F33D7308803A80
:100F8000F00082307002031DC72F00307202031C74
:100F90009B2FFF30F4000130F5007508803AF00017
:100FA00080307002031DD62F01307402031C8E2F77
:100FB0007508F1007408F000710DF10CF00C710D62
:100FC000F10CF00C70082600910074080339F00051
:100FD0000430F035890BE92F1308CF3970049300E2
:100FE000F930F0000000F00BF22F00320000FF306B
:100FF000F407FF30F53DCD2F7E1020008731782F8C
:020000040001F9
:04000E00E1FFFFDE31
:00000001FF
