:08000000803102288731F12F45
:100B6400F30020008D1473088631A9260800013093
:100B740021009D00C0309E009B019C010800F300F1
:100B840020008D107308803E8631A92608002000BD
:100B94008D14730884007408850000080038031954
:100BA4000800730884007408850000088631A926AB
:100BB40085310130F3070030F43DCB2DF401F5010C
:100BC400701CE82D7208F4077308F53D0130F23506
:100BD400F30D890BE92D0130F136F00C890BEE2D64
:100BE40071087004031DE22D7508F101F107740802
:100BF400F001F0070800F2007208F000F00DF00DAB
:100C040021001D087006833970069D001D140730ED
:100C1400F1007D30F000F00B0D2EF10B0D2E2100B4
:100C24009D149D18132E1C082000A301A307210066
:100C34001B082000A201A20708000230F20072087B
:100C44002000AC008631FC2686312830F200720880
:100C54002000AC008631FC2686310C30F20072088C
:100C64002000AC008631FC2686310630F200720882
:100C74002000AC008631FC2686312000AC01AC0A91
:100C84008631FC26080071082000A101A107700824
:100C9400A001A007A801A901AA0100302102643023
:100CA40003192002031C672E6430A0020030A13B0C
:100CB4000130F2007208A8074F2E0A30A00200305B
:100CC400A13B0130F2007208A907003021020A306A
:100CD4000319200203185F2E2008F2007208AA00EC
:100CE4000800FB01FC01770876040319A22EFD011C
:100CF400FD0AF71B872E0130F635F70D890B7E2E82
:100D04000130FA007A08FD077B2E0130FB35FC0D1B
:100D1400890B882E77087902031D922E76087802B3
:100D2400031C992E7608F8027708F93B7B140130EE
:100D3400F736F60C890B9A2E0130FD02031D872E1F
:100D44007C08F701F7077B08F601F6070800F200B4
:100D540020000D140D080F398D007208F039F000D1
:100D64007008AB002B080D048D000330F1009730A0
:100D7400F000F00BBB2EF10BBB2E003220000D1047
:100D84000330F1009730F000F00BC62EF10BC62EA5
:100D9400003220000D140D080F398D007208F00088
:100DA4000330F035FF3E031DD32E7035F10071087A
:100DB400F2007208F0007008AB002B08F039F00064
:100DC4007008AB002B080D048D000330F100973040
:100DD400F000F00BEB2EF10BEB2E003220000D1087
:100DE4000330F1009730F000F00BF62EF10BF62EE5
:100DF4000032080020008D100D140D080F398D00ED
:100E04002C08F039F0007008AB002B080D048D009D
:100E14000330F1009730F000F00B0E2FF10B0E2F82
:100E2400003220000D100330F1009730F000F00B79
:100E3400192FF10B192F003220000D140D080F3952
:100E44008D002C08F0000330F035FF3E031D262FE3
:100E54007035F1007108AC002C08F0007008AB008C
:100E64002B08F039F0007008AB002B080D048D003E
:100E74000330F1009730F000F00B3E2FF10B3E2FC2
:100E8400003220000D100330F1009730F000F00B19
:100E9400492FF10B492F00320800FF3021008C004C
:100EA400033023008C0021008D0123008D012000DC
:100EB4008D0186311F2687318531B9258731003070
:100EC4008531C12587310C30F3008830F400853139
:100ED400C925873140308531C12587310030F30081
:100EE4008830F4008531C925873100308531FD25EE
:100EF4008731E830F6000330F70020002308F101C1
:100F0400F1072208F001F0073130F2000030F3005D
:100F14008531E02587317108F901F9077008F80176
:100F2400F80786317326873177082000A701A707C1
:100F34007608A601A6072708F101F1072608F001A3
:100F4400F00786314526873106308531C125873142
:100F540020002908303E8531B2258731083085319B
:100F6400C125873120002A08303E8531B2258731DA
:100F740001308531FD25873120002308AE00220889
:100F8400AD00AE36AD0C2D08A4002E08A500250832
:100F9400F101F1072408F001F00786314526873175
:100FA40046308531C125873120002808303E8531FF
:100FB400B225873147308531C12587312000290882
:100FC400303E8531B225873148308531C12587319E
:100FD40020002A08303E8531B2258731772FA001C1
:100FE400A101A201A301A401A501A601A701A801D1
:100FF400A901AA017E10200087314F2F5434653493
:101004006D3470343A342034203420342034203485
:101014004334003456346F346C3474343A342034EA
:0A10240020342E34203456340034FA
:020000040001F9
:04000E00E1FFFFDE31
:00000001FF
