:08000000803102288731FA2F3C
:100D36007108F3007008F200730DF30CF20C730DDA
:100D4600F30CF20C72082600910070080339F200C9
:100D56000430F235890BAC2E1308CF397204930098
:100D660008007108F3007008F200730DF30CF20C22
:100D7600730DF30CF20C7208260098007008033904
:100D8600F2000430F235890BC52E1A08CF397204E9
:100D96009A000800F401F501701CD52E7208F407BC
:100DA6007308F53D0130F235F30D890BD62E01306F
:100DB600F136F00C890BDB2E71087004031DCF2E63
:100DC6007508F101F1077408F001F0070800F20058
:100DD6007208F000F00DF00D21001D087006833931
:100DE60070069D001D140730F1007D30F000F00BF9
:100DF600FA2EF10BFA2E21009D149D18002F1C08C7
:100E06002000A901A90721001B082000A801A807A6
:100E160008002000A101F71F172FF609F709F60AA7
:100E26000319F70AA101A10AF91F222FF809F909E6
:100E3600F80A0319F90A0130FA007A08A106A20194
:100E4600A301770876040319512FA001A00AF71B06
:100E5600362F0130F635F70D890B2D2F0130FA00AC
:100E66007A08A0072A2F0130A235A30D890B372F48
:100E760077087902031D412F76087802031C482F54
:100E86007608F8027708F93B22140130F736F60C9B
:100E9600890B492F0130A002031D362F21080319A3
:100EA600592FA209A309A20A0319A30A2308F701C5
:100EB600F7072208F601F6070800E03021008C004B
:100EC60023008C01FF3021008D00063023008D00A9
:100ED6002D3021009D00C0309E009B019C010330F7
:100EE60020009C004E309B009A0191101C15033087
:100EF600280097004E309600950120009310280098
:100F060017151C30260093002730910025001E0877
:100F1600CF3910389E001C3026009A0027309800E2
:100F26003F3025009E052000A401A501A601A701CA
:100F36000B308631EA268731E830F6000330F700B9
:100F460020002908F101F1072808F001F0071F30F9
:100F5600F2000030F3008631CD2687317108F901A1
:100F6600F9077008F801F80787310C2787317608EA
:100F7600083E2000A4000030773DA5002508F101B9
:100F8600F1072408F001F00786319B2687310A30E5
:100F96008631EA268731E830F6000330F700200074
:100FA6002908F101F1072808F001F0071F30F200C7
:100FB6000030F3008631CD2687317108F901F90733
:100FC6007008F801F80787310C2787317608083E44
:100FD6002000A6000030773DA7002708F101F107A1
:100FE6002608F001F0078631B42687319B2FA80129
:0A0FF600A9017E1020008731602F52
:020000040001F9
:04000E00E1FFFFDE31
:00000001FF
