:08000000803102288731FC2F3A
:100DCA00F601F11FEF2EF009F109F00A0319F10AF1
:100DDA00F601F60AF31FFA2EF209F309F20A0319C9
:100DEA00F30A0130F4007408F606F701F8017108F5
:100DFA0070040319292FF501F50AF11B0E2F013092
:100E0A00F035F10D890B052F0130F4007408F50750
:100E1A00022F0130F735F80D890B0F2F7108730275
:100E2A00031D192F70087202031C202F7008F2028A
:100E3A007108F33B77140130F136F00C890B212F3E
:100E4A000130F502031D0E2F76080319312FF70919
:100E5A00F809F70A0319F80A7808F101F10777087F
:100E6A00F001F0070800F03021008C008D011030ED
:100E7A0023008C008D0120008C018D01113021008E
:100E8A009D00C0309E009B019C012000A001A10191
:100E9A00A201A701A80121001D08833910389D006D
:100EAA001D149D149D18572F1C082000A101A1078D
:100EBA0021001B082000A001A0070230F00000302A
:100ECA00F1002108F301F3072008F201F207863145
:100EDA00E52687317008F90079082000A200220867
:100EEA00F900FA017908A7007A08A800A401A50167
:100EFA00A601A3012808803AF90083307902031D6C
:100F0A00882FE8302702031C9D2F18302000A707DE
:100F1A00FC30A83D0130F9007908A3077F2F9C30E7
:100F2A002000A707FF30A83D0130F9007908A4077F
:100F3A0020002808803AF90080307902031DA72F83
:100F4A0064302702031CB32F942FF6302000A70722
:100F5A00FF30A83D0130F9007908A50720002808CC
:100F6A00803AF90080307902031DBD2F0A3027022A
:100F7A000318AA2F20002708F9007908A6000130D3
:100F8A008C0026088D000D30FA00FB30F900F90BB1
:100F9A00CC2FFA0BCC2F0032023020008C0025080F
:100FAA008D000D30FA00FB30F900F90BDA2FFA0B3D
:100FBA00DA2F0032043020008C0024088D000D3016
:100FCA00FA00FB30F900F90BE82FFA0BE82F003290
:100FDA00083020008C0023088D000D30FA00FB3009
:100FEA00F900F90BF62FFA0BF62F0032502F7E106C
:060FFA0020008731382FB2
:020000040001F9
:04000E00E1FFFFDE31
:00000001FF
