:08000000803102288731FC2F3A
:100F20007108F3007008F200730DF30CF20C730DEE
:100F3000F30CF20C72082600910070080339F200DD
:100F40000430F235890BA12F1308CF3972049300B6
:100F50000800F73021008C00173023008C0003308C
:100F600020009C004E309B009A0191101C151C30F3
:100F70002600930027309100CF3025009E052730B2
:100F8000F0000030F1008731902787310630F600FD
:100F90001330F500B130F400F40BCC2FF50BCC2F4F
:100FA000F60BCC2F00321730F0000030F100873103
:100FB000902787310630F6001330F500B130F40089
:100FC000F40BE02FF50BE02FF60BE02F003208308A
:100FD000F0000030F1008731902787310630F600AD
:100FE0001330F500B130F400F40BF42FF50BF42FAF
:100FF000F60BF42F0032BF2F7E1020008731A92F6F
:020000040001F9
:04000E00E1FFFFDE31
:00000001FF
