:08000000803102288731FC2F3A
:100DAE00F03021008C0023008C010F3021008D00CB
:100DBE0023008D0120008C018D01EF308D000D1A66
:100DCE00EA2E0130EB2E0030F0000D18F02E01301F
:100DDE00F12E0030700500380319F72E0130292F3F
:100DEE000D1AFB2E0130FC2E0030F0008D18012F55
:100DFE000130022F0030700500380319082F04301F
:100E0E00292F0D1A0C2F01300D2F0030F0000D1967
:100E1E00122F0130132F0030700500380319192FCF
:100E2E000730292F0D1A1D2F01301E2F0030F00014
:100E3E008D19232F0130242F00307005003803192F
:100E4E002A2F0A308C00DF308D008D1A302F0130A2
:100E5E00312F0030F0000D18362F0130372F0030B3
:100E6E007005003803193D2F02305E2F8D1A412F69
:100E7E000130422F0030F0008D18472F0130482FDF
:100E8E0000307005003803194E2F05305E2F8D1A75
:100E9E00522F0130532F0030F0000D19582F013012
:100EAE00592F0030700500380319602F08308C0060
:100EBE006F2F8D1A642F0130652F0030F0008D19C1
:100ECE006A2F01306B2F003070050038031D8C0126
:100EDE00BF308D000D1B752F0130762F0030F000C6
:100EEE000D187B2F01307C2F003070050038031950
:100EFE00822F0330B42F0D1B862F0130872F003029
:100F0E00F0008D188C2F01308D2F003070050038B9
:100F1E000319932F0630B42F0D1B972F0130982FE6
:100F2E000030F0000D199D2F01309E2F00307005FE
:100F3E0000380319A42F0930B42F0D1BA82F013030
:100F4E00A92F0030F0008D19AE2F0130AF2F0030D9
:100F5E00700500380319B52F0B308C007F308D00D3
:100F6E008D1BBB2F0130BC2F0030F0000D18C12F90
:100F7E000130C22F0030700500380319C82F0C3015
:100F8E00FA2F8D1BCC2F0130CD2F0030F0008D1895
:100F9E00D22F0130D32F0030700500380319D92F0E
:100FAE000D30FA2F8D1BDD2F0130DE2F0030F000BB
:100FBE000D19E32F0130E42F0030700500380319AE
:100FCE00EA2F0E30FA2F8D1BEE2F0130EF2F00304F
:100FDE00F0008D19F42F0130F52F00307005003818
:100FEE000319E42E0F308C00E42E7E102000863183
:020FFE00D72EEC
:020000040001F9
:04000E00E1FFFFDE31
:00000001FF
