:0400000080314728DC
:100008007E14803120007F08F800403082318F2232
:1000180080310030F3008230F40082317022803168
:10002800F9010630790203183728483082318F22C7
:1000380080317908303E8231972280310230F700D2
:100048000430F600BA30F500F50B2828F60B2828FE
:10005800F70B282800000130F5007508F90706306D
:100068007902031C1928403082318F2280311130E7
:10007800F3008230F400823170228B10780820005F
:10008800FF007E100900803149287E102000813150
:10009800462920000D118D140D080F398D007B089D
:1000A800F039A0002008FA007A080D048D0003300A
:1000B800A1009730A000A00B5F28A10B5F28003299
:1000C80020008D100330A1009730A000A00B6A28F3
:1000D800A10B6A28003220008D140D080F398D00FD
:1000E8007B08A0000330A035FF3E031D772820358C
:1000F800A1002108FB007B08A0002008FA007A086C
:10010800F039A0002008FA007A080D048D000330A9
:10011800A1009730A000A00B8F28A10B8F280032D8
:1001280020008D100330A1009730A000A00B9A2862
:10013800A10B9A28003208002000A2008D140D0897
:100148000F398D002208F039A0002008FA007A083B
:100158000D048D000330A1009730A000A00BB22839
:10016800A10BB228003220008D100330A100973077
:10017800A000A00BBD28A10BBD28003220008D14C3
:100188000D080F398D002208A0000330A035FF3E6E
:10019800031DCA282035A1002108A2002208A000BA
:1001A8002008FA007A08F039A0002008FA007A0836
:1001B8000D048D000330A1009730A000A00BE228A9
:1001C800A10BE228003220008D100330A1009730E7
:1001D800A000A00BED28A10BED2800320800F200CA
:1001E80020008D140D080F398D007208F039F000C9
:1001F8007008FA007A080D048D000330F10097307A
:10020800F000F00B0529F10B0529003220008D10B4
:100218000330F1009730F000F00B1029F10B102992
:10022800003220008D140D080F398D007208F0007F
:100238000330F035FF3E031D1D297035F1007108AC
:10024800F2007208F0007008FA007A08F039F0003D
:100258007008FA007A080D048D000330F100973019
:10026800F000F00B3529F10B3529003220008D10F4
:100278000330F1009730F000F00B4029F10B4029D2
:1002880000320800013021008D0023008D0120007C
:100298008D0190308B00210015138231332281317A
:1002A800003082318722813122302000A300823041
:1002B800A400823158228131403082318722813135
:1002C80011302000A3008230A400823158228131ED
:1002D800083020008D060230A7000430A600BA308E
:1002E800A500A50B7529A60B7529A70B7529000074
:0202F8006C296F
:100400004134433454344934563441342134203453
:10041000203420342034203420342034203420343C
:1004200000342034203449346E34613463347434FD
:100430006934763461342E342E342E342034203412
:10044000203400342034203449346E34743465341C
:100450007234723475347034633469346F346E348A
:1004600020342034003402302000A2002208FB0097
:1004700080314D20823128302000A2002208FB006C
:1004800080314D2082310C302000A2002208FB0078
:1004900080314D20823106302000A2002208FB006E
:1004A00080314D208231FB01FB0A80314D20080054
:1004B00020000D152308840024088500000800385A
:1004C00003190800230884002408850000088031EF
:1004D000A020823101302000A3070030A43D5A2A19
:1004E00020000D157308840074088500000800388A
:1004F000031908007308840074088500000880311F
:10050000F32082310130F3070030F43D722A2000DD
:10051000A3000D112308803E8031A0200800F300C5
:1005200020000D117308803E8031F3200800F30095
:0C05300020000D1573088031F320080036
:020000040001F9
:04000E00E1FFFFDE31
:00000001FF
