:08000000803102288731FC2F3A
:100F0E00FF3021008C0023008C01023021008D0067
:100F1E0023008D0180302400940021309500F301D0
:100F2E000930F0007008F40020000D178D17200016
:100F3E000D138D177335240091000230F20004302A
:100F4E00F100BA30F000F00BAA2FF10BAA2FF20B22
:100F5E00AA2F000020000D178D172400141CB42F8B
:100F6E000230F2000430F100BA30F000F00BBD2F69
:100F7E00F10BBD2FF20BBD2F000020008D130D17AE
:100F8E007435240091000230F2000430F100BA30C2
:100F9E00F000F00BD02FF10BD02FF20BD02F000062
:100FAE0020008D170D172400141CDA2F0230F200CA
:100FBE000430F100BA30F000F00BE32FF10BE32F09
:100FCE00F20BE32F00000130F0007008F3070A3037
:100FDE0073020318F301F408031DF92F0A30F00011
:100FEE007008F4000130F4029E2F7E10200087312D
:020FFE00872F3B
:020000040001F9
:04000E00E1FFFFDE31
:00000001FF
