:08000000803102288731FC2F3A
:100EF200F30020008C107308803E87319027080091
:100F020020008C100C140330F1009730F000F00B2D
:100F1200882FF10B882F003220000C100800F200FD
:100F2200720820008D000C140330F1009730F0009D
:100F3200F00B992FF10B992F003220000C100800B2
:100F420020008C147308840074088500000800389F
:100F520003190800730884007408850000088731AB
:100F6200902787310130F3070030F43DA32F023080
:100F720020008D00873181278731383020008D0095
:100F82008731812787310F3020008D0087318127FB
:100F92008731063020008D0087318127873101306B
:100FA20020008D00873181270800FC3021008C0051
:100FB20023008C0121008D0123008D0120008C0172
:100FC2008D018731B8278731003087317927873102
:100FD2000030F3008830F4008731A1278731403098
:100FE2008731792787311130F3008830F400873157
:100FF200A1278731FB2F7E1020008731D62F203486
:101002004C3443344434203450344934433431343E
:1010120036344634313438343234373420340034C0
:10102200403461346C3465346A3461346E3464340F
:1010320072346F346D3475346E346F347A34633491
:02104200003478
:020000040001F9
:04000E00E1FFFFDE31
:00000001FF
