:08000000803102288731FC2F3A
:100F72008731C4270800F0002000111EBD2F700821
:100F820023009A0008002000911EC42F23009D1CFC
:100F9200CC2F1D121D1619080800E03021008C000C
:100FA20023008C010F3020008C00023021008D00C4
:100FB20023008D0148309F0090309D0026309E0016
:100FC20067309B009C018731B9278731F100710896
:100FD200F2003A3072020318F42F30307202031C0E
:100FE200F42F7208F52F0F3020008C007208873121
:0E0FF200BC278731E42F7E1020008731CE2FE0
:020000040001F9
:04000E00E1FFFFDE31
:00000001FF
